:0E0000000C94FE000C9400000C9400000C9474
:10000E0000000C9400000C942A010C9400000C9437
:10001E0000000C9400000C9400000C9400000C9452
:10002E0000000C9400000C9400000C9400000C9442
:10003E0000000C9400000C9400000C9400000C9432
:10004E0000000C9400000609090600000000640080
:10005E00C80090012003F8FFFCFFFEFFFFFF000029
:10006E00000000000000252E34692F252E32692F46
:10007E00252E3269200053554E004D4F4E005455DB
:10008E0045005745440054485500465249005341D7
:10009E005400252E32693A252E32693A252E3269C0
:1000AE0020252E31660043202000596561722043C1
:1000BE00656E747572793A00252E32690059656144
:1000CE00723A004D6F6E74683A004461793A004896
:1000DE006F75723A004D696E7574653A00536563BB
:1000EE006F6E643A005765656B6461793A00202043
:1000FE0020202053756E646179202020202000205E
:10010E00202020204D6F6E64617920202020200059
:10011E0020202020205475657364617920202020D2
:10012E0000202020205765646E657364617920205D
:10013E00200020202020546875727364617920207D
:10014E002020002020202020467269646179202022
:10015E002020200020202020536174757264617964
:10016E0020202020000080C02D4E414E00000100B6
:10017E002D4E414E00494E460000070007006C0010
:10018E0004006002B4000E006402B80006007202A1
:10019E00CB0007007802D10005007F02D8000600D0
:1001AE008402DD0008008A02E30008009202EB00E0
:1001BE0009009A02F3001100A302FC001100B40220
:1001CE000D011100C5021E011100D6022F011100F2
:1001DE00E70240011100F80251011100090362010A
:1001EE00020039037401010040037C010000F89401
:1001FE00EE27ECBBF1E0F5BFE5BF8DE0A2E0BB273B
:10020E00ED938A95E9F780E098E0A0E6ED930197EB
:10021E00E9F7E8E8F1E085919591009761F0A591F5
:10022E00B59105901590BF01F00105900D920197C3
:10023E00E1F7FB01F0CFEFE5EDBFE8E0EEBFC0E682
:10024E00D2E00C944901EA93EFB7EA93E0E07E1610
:10025E0018F0EAE3E71508F402C073940FC0EBE35D
:10026E007E1660F077244394E41540F444245394AE
:10027E00E7E1E51518F455248394B394E991EFBFA3
:10028E00E9911895E8EFEABBE7E0EBBBEFEFE7BBD0
:10029E00E0E0E8BBEFEFE4BBE0E0E5BBEFEFE1BB96
:1002AE00E0E0E2BBE3BFE8EDE2BFE0E0ECBFEFBDB4
:1002BE00EEBDEDBDECBDE7BDE6BDEBBDEABDE9BDF6
:1002CE00E8BDE8E0E2BDE5E0E5BDE0E0E4BDE3BDAC
:1002DE00E0E4E9BFE0E0E5BFE4BFEAB9E0E8E8B991
:1002EE00E0E0E0BFE6B9EDB9E6BF0E949B10E0E0AA
:1002FE00EA93EA93A0E0E5D60E94F610A0E10E94F0
:10030E00E209E4E5F0E0FA93EA93A0E0C0D60E9499
:10031E00A3097894E5E0F0E0FA93EA93E4E0F0E0E4
:10032E00FA93EA93A7E0B0E0E5D6EBE0F0E0FA93BB
:10033E00EA93E8E0F0E0FA93EA93E9E0F0E0FA936A
:10034E00EA93A6E0B0E0FBD60E94B00EE03029F4AE
:10035E00A0E0B0E0E4E10E94F61301D0FFCFD9D0C7
:10036E00E9B3E770E13011F445D107C0E23011F482
:10037E00EFD103C0E43009F404D2E0913803E03049
:10038E0009F0C1C0A0E0B0E052D7E0932303F09390
:10039E0024036093250370932603A72DBB27EAE061
:1003AE00F0E00E947C13359774F40E94B50E0E9403
:1003BE00B00E0E94BE0E0E941B130E94D3130E9409
:1003CE00C70EE82D1FC00E94B00E0E94BE0EFA93FB
:1003DE00EA939A928A92ECE0F0E0FA93EA93EAE0DA
:1003EE00F0E0FA93EA93A7E3B3E09FD20E94B50E32
:1003FE00F601662777270E94D313EA2D0E94CE0EB0
:10040E00E0913703FF27662777270E94D3138CE0EE
:10041E000E947D0D60960E94D40E0E94D90EEB2D87
:10042E000E94DD0E29F40E94E20EE4E8F0E035C0F1
:10043E00E230A0E0FA0729F40E94E20EE8E8F0E0CC
:10044E002CC0E330A0E0FA0729F40E94E20EECE89B
:10045E00F0E023C0E430A0E0FA0729F40E94E20E97
:10046E00E0E9F0E01AC0E530A0E0FA0729F40E94B6
:10047E00E20EE4E9F0E011C0E630A0E0FA0729F45C
:10048E000E94E20EE8E9F0E008C0E730A0E0FA07CB
:10049E0051F40E94E20EECE9F0E0FA93EA9380E068
:1004AE000E947D0D2496EDE0EA93A0E00E94920951
:1004BE000E94D90E0E94E20EE0EAF0E0FA93EA936F
:1004CE00E52D0E94CE0EE42D0E94CE0EE72D0E9449
:1004DE00CE0EE0912303F0912403609125037091D9
:1004EE0026030E94D31380E10E947D0D6496E0E006
:1004FE000E94E70E0E94D90EA0E00E94B109A0E66C
:10050E00B2E00E94D109A0913803A13008F0F6D4D0
:10051E0026CFE0913803E03009F06BC0BB2019F014
:10052E00E7E0EB1510F4E1E0BE2E882011F4E1E0D7
:10053E008E2EEFE1E815B0F4E1E0E91591F0E3E07D
:10054E00E91579F0E5E0E91561F0E7E0E91549F024
:10055E00E8E0E91531F0EAE0E91519F0ECE0E9150B
:10056E0009F401C003C0E1E08E2E9394EEE1E8158C
:10057E0068F4E4E0E91549F0E6E0E91531F0E9E068
:10058E00E91519F0EBE0E91509F401C003C0E1E04B
:10059E008E2E9394ECE1E81558F4E2E0E91541F45F
:1005AE000E94B00E0E94BE0E0E94EB0E309709F014
:1005BE0003C0E1E08E2E9394992011F4E1E09E2E7B
:1005CE00ECE0E91518F4E1E09E2E6394E3E6E615FF
:1005DE0030F466240E94B00EEF5F0E94F6130E9464
:1005EE00B00EE43630F06624A0E0B0E0E0E00E9409
:1005FE00F61308950E94F10E71F40E94B00EE336C8
:10060E0020F0A0E0B0E0E0E003C00E94B00EEF5F8B
:10061E000E94F6139CC0E230A0E0FA0739F4E3E63C
:10062E006E1610F0662401C0639491C0E330A0E012
:10063E00FA0741F4ECE09E1618F0E1E09E2E01C0A0
:10064E00939485C0E430A0E0FA0709F059C0EFE1B9
:10065E008E16B0F0E1E0E91591F0E3E0E91579F0DE
:10066E00E5E0E91561F0E7E0E91549F0E8E0E915A4
:10067E0031F0EAE0E91519F0ECE0E91509F401C0F2
:10068E0003C0E1E08E2E63C0EEE18E1668F0E4E06A
:10069E00E91549F0E6E0E91531F0E9E0E91519F060
:1006AE00EBE0E91509F401C003C0E1E08E2E4FC066
:1006BE00EDE18E1668F0E2E0E91551F40E94B00EFD
:1006CE000E94BE0E0E94EB0EE130A0E0FA0709F088
:1006DE0003C0E1E08E2E3BC0ECE18E1658F0E2E056
:1006EE00E91541F40E94B00E0E94BE0E0E94EB0E60
:1006FE00309709F003C0E1E08E2E29C0839427C005
:10070E00E530A0E0FA0739F4E7E15E1610F0552463
:10071E0001C053941CC0E630A0E0FA0739F4EBE3B5
:10072E004E1610F0442401C0439411C0E730A0E0EF
:10073E00FA0711F477240BC0E830A0E0FA0739F479
:10074E00E7E0BE1618F0E1E0BE2E01C0B394C5C0BE
:10075E000E94A309A0913803A83068F0E0E0E0936E
:10076E0038035A924A92A72DDDD4BA928A929A925F
:10077E00A62D00D505C0E0913803EF5FE093380356
:10078E00ACC00E94F10E71F40E94B00EE03021F464
:10079E00A0E0B0E0E3E603C00E94B00EE1500E947C
:1007AE00F6139BC0E230A0E0FA0739F4662019F484
:1007BE00E3E66E2E01C06A9490C0E330A0E0FA0723
:1007CE0041F4E1E0E91518F0ECE09E2E01C09A9498
:1007DE0084C0E430A0E0FA0709F058C0E1E0E81563
:1007EE00A8F0E91591F0E3E0E91579F0E5E0E915F7
:1007FE0061F0E7E0E91549F0E8E0E91531F0EAE0EB
:10080E00E91519F0ECE0E91509F401C003C0EFE1B8
:10081E008E2E63C0E1E0E81568F0E4E0E91549F0DA
:10082E00E6E0E91531F0E9E0E91519F0EBE0E9153C
:10083E0009F401C003C0EEE18E2E4FC0E1E0E815D1
:10084E0068F0E2E0E91551F40E94B00E0E94BE0E6F
:10085E000E94EB0EE130A0E0FA0709F003C0EDE1D3
:10086E008E2E3BC0E1E0E81558F0E2E0E91541F4C8
:10087E000E94B00E0E94BE0E0E94EB0E309709F041
:10088E0003C0ECE18E2E29C08A9427C0E530A0E08B
:10089E00FA0739F4552019F4E7E15E2E01C05A9497
:1008AE001CC0E630A0E0FA0739F4442019F4EBE35B
:1008BE004E2E01C04A9411C0E730A0E0FA0711F4A1
:1008CE0077240BC0E830A0E0FA0739F4E1E0EB152D
:1008DE0018F0E7E0BE2E01C0BA94A4EFB1E00E947A
:1008EE00EC100895BA93AA93E881F981E130A0E063
:1008FE00FA0751F40E94F40E309719F4E1E0F0E09B
:10090E0012C0E0E0F0E00FC0E230A0E0FA0759F4C8
:10091E000E94F40EE330A0E0FA0719F4E1E0F0E0F3
:10092E0002C0E0E0F0E024960895BA93AA9360978F
:10093E000E941114EE8DFF8D31970E94FB0EEA8BF3
:10094E00FB8B6C8B7D8BED8DF0E031978F01AA893F
:10095E00BB898C899D890E94000F0E945212DF0173
:10096E00CB01EC8DF0E00E94FB0E0E94050FAE8DC8
:10097E00BF8DE4E0F0E00E947C13309709F07CC05C
:10098E00F801E130A0E0FA0729F40E940C0F0E9452
:10099E00110F6DC0E230A0E0FA0739F40E940C0F7F
:1009AE00A0E0B0E080E792E462C0E330A0E0FA0796
:1009BE0039F40E940C0FA0E0B0E086EB92E457C031
:1009CE00E430A0E0FA0739F40E940C0FA0E0B0E08A
:1009DE0082EF92E44CC0E530A0E0FA0739F40E94B1
:1009EE000C0FA0E0B0E088E193E441C0E630A0E057
:1009FE00FA0739F40E940C0FA0E0B0E086E393E40E
:100A0E0036C0E730A0E0FA0739F40E940C0FA0E0E0
:100A1E00B0E085E593E42BC0E830A0E0FA0739F4A6
:100A2E000E940C0FA0E0B0E084E793E420C0E93010
:100A3E00A0E0FA0739F40E940C0FA0E0B0E089E8BC
:100A4E0093E415C0EA30A0E0FA0739F40E940C0FC7
:100A5E00A0E0B0E888E993E40AC0EB30A0E0FA0722
:100A6E0051F40E940C0FA0E0B0E887EA93E40E94D4
:100A7E0002120E94160F7BC0F801E130A0E0FA07C7
:100A8E0029F40E940C0F0E94110F6DC0E230A0E0FD
:100A9E00FA0739F40E940C0FA0E0B0E08CE692E465
:100AAE0062C0E330A0E0FA0739F40E940C0FA0E018
:100ABE00B0E084EB92E457C0E430A0E0FA0739F4DA
:100ACE000E940C0FA0E0B0E080EF92E44CC0E53045
:100ADE00A0E0FA0739F40E940C0FA0E0B0E087E125
:100AEE0093E441C0E630A0E0FA0739F40E940C0FFF
:100AFE00A0E0B0E085E393E436C0E730A0E0FA076B
:100B0E0039F40E940C0FA0E0B0E084E593E42BC012
:100B1E00E830A0E0FA0739F40E940C0FA0E0B0E034
:100B2E0083E793E420C0E930A0E0FA0739F40E948D
:100B3E000C0FA0E0B0E888E893E415C0EA30A0E01E
:100B4E00FA0739F40E940C0FA0E0B0E088E993E4B4
:100B5E000AC0EB30A0E0FA0751F40E940C0FA0E09F
:100B6E00B0E087EA93E40E9402120E94160F0E94E0
:100B7E000C0FA0ECB4E98DE598E40E94FB110E94E5
:100B8E00160F0E941B0F0E94230F0E940212DE01FD
:100B9E001A960E9491110E94B8130E941B0FDE013B
:100BAE0016960E9491110E94B813EE81FF816885FE
:100BBE0079850E94C811A0E0B0EA86EB93E40E940A
:100BCE005212A0E0B0E080E89EE30E9402120E9462
:100BDE00280F0E942D0F0E94160F0E94320FE33035
:100BEE00A0E0FA07A0E06A07A0E07A0731F40E94BD
:100BFE000C0F0E94230F0E94050F0E94280FE0E0A9
:100C0E00F0E068EA73E40E94E51258F02CE030E060
:100C1E000E940C0FA0E0B0E088EA93E40E943D0F22
:100C2E00E6C00E94280FE0E0F0E069E973E40E945C
:100C3E00E51258F02BE030E00E940C0FA0E0B0E07F
:100C4E0089E993E40E943D0FD2C00E94280FE0E094
:100C5E00F0E06AE873E40E94E51258F02AE030E012
:100C6E000E940C0FA0E0B0E08AE893E40E943D0FD2
:100C7E00BEC00E94280FE0E0F0E066E773E40E9439
:100C8E00E51258F029E030E00E940C0FA0E0B0E031
:100C9E0086E793E40E943D0FAAC00E94280FE0E071
:100CAE00F0E068E573E40E94E51258F028E030E0C9
:100CBE000E940C0FA0E0B0E088E593E40E943D0F87
:100CCE0096C00E94280FE0E0F0E06AE373E40E9411
:100CDE00E51258F027E030E00E940C0FA0E0B0E0E3
:100CEE008AE393E40E943D0F82C00E94280FE0E049
:100CFE00F0E06BE173E40E94E51258F026E030E07C
:100D0E000E940C0FA0E0B0E08BE193E40E943D0F37
:100D1E006EC00E94280FE0E0F0E068EF72E40E94DF
:100D2E00E51258F025E030E00E940C0FA0E0B0E094
:100D3E0088EF92E40E943D0F5AC00E94280FE0E017
:100D4E00F0E06AEB72E40E94E51258F024E030E025
:100D5E000E940C0FA0E0B0E08AEB92E40E943D0FDF
:100D6E0046C00E94280FE0E0F0E068E772E40E94BF
:100D7E00E51258F023E030E00E940C0FA0E0B0E046
:100D8E0088E792E40E943D0F32C00E94280FE0E0F7
:100D9E00F0E068EF71E40E94E51248F022E030E0E6
:100DAE000E940C0F0E94110F0E943D0F20C00E9446
:100DBE00280F0E940B1444F421E030E00E940C0F27
:100DCE000E949111AF0113C00E940C0F0E940714D4
:100DDE0071F40E94320F0E94071429F00E94430FF3
:100DEE004DE150E004C00E94430F4EE150E041300F
:100DFE00E0E05E070CF072C0F901E130A0E0FA0706
:100E0E0099F40E94430FEA85FB85FA93EA93A2E0D8
:100E1E00B0E068DDE130A0E0FA0719F44EE150E0F1
:100E2E0002C04DE150E05AC0E230A0E0FA0729F4CA
:100E3E0021E030E04FE150E051C0E330A0E0FA078E
:100E4E0029F422E030E04FE150E048C0E430A0E069
:100E5E00FA0729F423E030E04FE150E03FC0E530DF
:100E6E00A0E0FA0729F424E030E04FE150E036C06C
:100E7E00E630A0E0FA0729F425E030E04FE150E03B
:100E8E002DC0E730A0E0FA0729F426E030E04FE16C
:100E9E0050E024C0E830A0E0FA0719F427E030E073
:100EAE001BC0E930A0E0FA0719F428E030E014C0C6
:100EBE00EA30A0E0FA0719F429E030E00DC0EB307B
:100ECE00A0E0FA0719F42AE030E006C0EC30A0E00A
:100EDE00FA0721F42BE030E04EE150E0EA85FB8585
:100EEE00AA8DBB8DED93FC93A88DB98D2C93AE89F5
:100EFE00BF894C930E941814A09608950E94F10E7B
:100F0E0089F40E94D40EA4E6B2E00E94520F0E9411
:100F1E00550F0E94B00E0E94CE0E0E945A0FA7E2ED
:100F2E00B3E0B3C0E230A0E0FA0781F40E94D40E21
:100F3E00A2E7B2E00E94520F0E94550FE62D0E94CA
:100F4E00CE0E0E945A0FA7E2B3E09FC0E330A0E09E
:100F5E00FA0779F40E94D40EA8E7B2E00E94520F6D
:100F6E000E94550F0E94C70E0E945A0FA7E2B3E0CF
:100F7E008CC0E430A0E0FA0781F40E94D40EAFE7F3
:100F8E00B2E00E94520F0E94550FE82D0E94CE0E25
:100F9E000E945A0FA7E2B3E078C0E530A0E0FA074E
:100FAE0081F40E94D40EA4E8B2E00E94520F0E9477
:100FBE00550FE52D0E94CE0E0E945A0FA7E2B3E008
:100FCE0064C0E630A0E0FA0781F40E94D40EAAE8CD
:100FDE00B2E00E94520F0E94550FE42D0E94CE0ED9
:100FEE000E945A0FA7E2B3E050C0E730A0E0FA0724
:100FFE0081F40E94D40EA2E9B2E00E94520F0E9428
:10100E00550FE72D0E94CE0E0E945A0FA7E2B3E0B5
:10101E003CC0E830A0E0FA07C9F50E94D40EAAE958
:10102E00B2E0B8D1E0E00E94E70EEB2D0E94DD0E9B
:10103E0019F4A3EAB2E029C0E230A0E0FA0719F4ED
:10104E00A4EBB2E022C0E330A0E0FA0719F4A5EC5D
:10105E00B2E01BC0E430A0E0FA0719F4A6EDB2E04E
:10106E0014C0E530A0E0FA0719F4A7EEB2E00DC007
:10107E00E630A0E0FA0719F4A8EFB2E006C0E730B8
:10108E00A0E0FA0719F4A9E0B3E084D10895AA9379
:10109E001A930A93EA81EE0FEE0FEE0FE0640E2F15
:1010AE0010E0183060F40A930395EC81FD813196BF
:1010BE00EC83FD833197A49126D11F5FF2CF0C9460
:1010CE008D0AAA93EA81E370EA83E981E03019F090
:1010DE00EA81E061EA83E881E03019F0EA81E068B4
:1010EE00EA830E94600FA7E00E94D410AA810E949A
:1010FE00650F5FC1BA93AA930E94600FA0E00E9491
:10110E00650F0E94690F0E94710F0E94780F0E9456
:10111E007E0FAE2F0E94B10DAC81BD81EC930E946B
:10112E00AF1083C0AA930E94600FA0E00E94840FAC
:10113E000E948B0F0E94920F0E94650F3AC1BA93C4
:10114E00AA930E94600FA3E00E94650F0E94690F90
:10115E00AE81BF81EC930E94780FAC81BD81EC9380
:10116E000E94780F0E947E0F0E94710F0E94AF1096
:10117E0028960895AA930E94600FA3E00E94D410AF
:10118E00AB810E94920F0E948B0F0E94840F0E94CF
:10119E00650F0C94550ABA93AA931A930E94F610EF
:1011AE00E03011F4E0E004C1E981FA81309781F07A
:1011BE00A5E50E943C1110E0A981BA81ED91A983A9
:1011CE00BA83AE2F0E943C111F5F1830A8F303C0E4
:1011DE00ACEC0E943C11E1E0EBC0BA93AA930E94E2
:1011EE001314AC81BD81D7DFE03011F4E0E01BC0F9
:1011FE00AEEB0E943C1110E02AE133E03F932F93B7
:10120E002F5F3F4F0E943711AF91BF91EC931F5F3D
:10121E001930A0F3EAE1F3E0FA93EA93A9E00E9411
:10122E0046110E9420130E941A1426960895BA930E
:10123E00AA931A93A981BA81D0DFE03019F40E94E3
:10124E00990FB6C0E0911E03E295EF70E695E3703C
:10125E001E2FA981BA819FDFE03019F40E94990FE9
:10126E00A7C0A4E40E943C11E12FACE5B0E0F0E091
:10127E00EE0FFF1FEA0FFB1F0E94C1130E94EC101E
:10128E00A981BA81AADFE03019F40E94990F90C0AB
:10129E000E94F610E12FA4E6B0E0F0E0EE0FFF1F83
:1012AE00EA0FFB1F0E94BD13A0911A03B0911B03FE
:1012BE00EA23FB230E94FB0EA0E0B0E080E89DE352
:1012CE000E94521275C0AA93E8B3EF70AE2FE88158
:1012DE00E07FEA2BE8BB8DE08A95F1F7C39A8DE0AB
:1012EE008A95F1F7C3988DE08A95F1F791C0AA938C
:1012FE00A881E9DFE881E295E883A881E4DF85E84B
:10130E008A95F1F785C0AA93A981F1DFC19AA881C8
:10131E00EEDFC1980FC0AA93E881F0E0E75CFC4FC6
:10132E00E081A981AE0FE3DFE981E0933D03E8811F
:10133E00E0933E0322960895A2E00E949E0FACE039
:10134E00D6DFA1E00E949E0FE0E0E0933E03E09323
:10135E003D030895AA93A881AA3031F0E0913F038E
:10136E00A0913D03AE1760F0E0E0EA93A0913E033A
:10137E00AF5FA0933E03CFDFA881AA3009F448C027
:10138E00E0913D03EF5FE0933D03C19AA881AFDF8B
:10139E00C1983EC0BA93AA931A93A981BA81ED91CE
:1013AE00A983BA831E2FE03019F0A12FD3DFF5CF1A
:1013BE00188123960895AA93E7B3E06FE7BBBB9A13
:1013CE00B99ABA9AC398C198C298E881E0933F033C
:1013DE00E058E0933B03E881E054E0933C03A4E142
:1013EE00B0E00E94EC100E94A40F0E94A40F0E9475
:1013FE00A40FA0E268DF88EC90E00197F1F7A8E275
:10140E0076DFA4E074DFA5E872DFA6E070DF94DF7C
:10141E00219608950E94D8137B816A81F981E88113
:10142E0077FB770F67FD7160972F9E5781F078F0ED
:10143E00983190F4AA27BB27882708948795B795EB
:10144E00A7959A95D1F7EA23FB23682305C0E89464
:10145E007727EE27FF2766276F77769508F4606863
:10146E0077F9A991B99189919991EA17FB076807C4
:10147E00790797FB08950E94D8130E94C9130E9402
:10148E00110A0E94CE1319F40E94C41307C0E6F786
:10149E000E94C4130E94230F0E94FB1124960895EC
:1014AE00BA93AA931A930A93AA81BB8112960E94A9
:1014BE00AE13309729F1AA81BB8114960E94AE1308
:1014CE008F01309761F00230E0E01E0780F0F801E6
:1014DE0031978F01AA81BB811496ED93FC93AA815B
:1014EE00BB8112960E94AC0F3197AC81A083AA816A
:1014FE00BB810E94AE13FF2312F00E94AC0F06C0F8
:10150E00AA81BB81EFEFFFEFED93FC931981088168
:10151E00259608950E94B20FE0E8EA83EFE3EB838D
:10152E000E941314EE85FF85EF3FAFEFFA0749F4E3
:10153E00E885F985FA93EA93A6E7B1E00E948A0E50
:10154E00B7C0EF3FAFE7FA0749F4E885F985FA939C
:10155E00EA93A7E7B1E00E948A0EAAC0AB85A73036
:10156E0010F0E6E0EB871B85E12F1150E03019F00B
:10157E000E94B90FF9CFEC85FD856E857F850E949F
:10158E00071421F430E00E94B90F2DC03B850E9454
:10159E00C80F09F008F40BC00E94B90F0E94C80FC3
:1015AE0028F00E94D30F0E94D80FF8CF0DC00E94D2
:1015BE00C80F40F40E94D30F0E94E40F0E94EB0F5D
:1015CE003150F5CF0E94B90FEC85FD856E857F8574
:1015DE000E94F00F0E94EB0F0E94C80F20F00E9495
:1015EE00D30F0E94D80F10E0EB85E117A8F1AC8164
:1015FE00BD818E819F810E94F70F0E94F00FDF0147
:10160E00CB010E94420AEC83FD836E837F830E948E
:10161E00D30F0E94A0120E948F110E2F0E94FE0F58
:10162E000E940510FF27662777270E94C811AC81FC
:10163E00BD818E819F810E9452120E94D30F0E9403
:10164E002D0F0E94EB0FE12F1F5FE03069F60E9415
:10165E00FE0FEEE2EC93C8CF0E940A103197AA85D6
:10166E00A08330302CF43195A885B985EDE203C006
:10167E00A885B985EBE2EC930E940A100E940A102D
:10168E003197BF01A32FEAE00E943313E05DDB0127
:10169E00EC930E940A103197BF01A32FEAE00E943B
:1016AE007013E05DDB01EC93A885B985E0E0EC9367
:1016BE000E941A1460960895BA93AA93EF976197B1
:1016CE000E94111410E0FE01E85AFF4F0190F081C4
:1016DE00E02DE887F987FE01EA5AFF4F0190F0816D
:1016EE00E02DEE83FF83AE81BF81E0E0F0E0ED936D
:1016FE00FC93DE01A45ABF4F0E94AC0F3197E491C8
:10170E002E2FE03009F4E9C1E12FE03039F4253213
:10171E0011F411E002C00E941010DEC1E130C1F4DC
:10172E00253219F40E941010D6C112E0E0E0ED8BC4
:10173E0000E02D3211F401E0CFC12B3219F4EBE2AF
:10174E00ED8BCAC1203219F4E0E2ED8BC5C102C0A7
:10175E00E23039F450E013E0203311F40068BCC1DC
:10176E0002C0E33091F4203310F02A3308F007C0A2
:10177E00AAE05A9F502DE22FE0535E0FADC140E01C
:10178E002E3211F414E0A8C10FC0E43099F42033C6
:10179E0010F02A3308F008C00062AAE04A9F402DDC
:1017AE00E22FE0534E0F98C12C3619F4026015E06B
:1017BE0093C103C0E53009F08FC1E22FE33659F42F
:1017CE000E9417100E941E100E941710A481AA9347
:1017DE000E94251080C1E53411F0E53609F403C0EE
:1017EE00E63609F048C0FE017696EE87FF870E9426
:1017FE002B100E94B2130E9432100E943710AD853A
:10180E00AA2332F0AD89AB3259F0A03281F017C065
:10181E000E9439100E945C110E943210EDE2ED8B95
:10182E0007FF05C0ED89EA930E94251008C0EE85DA
:10183E00FF853196EE87FF873197AD89A08305FF2F
:10184E0046E0263651F40E9439100E94D3134A9373
:10185E00AB89BC890E94C80D09C00E9439100E9434
:10186E00D3134A932A93AC89BD8954DEFE01769632
:10187E000E943E101EC0E33739F40E9437100E94BA
:10188E0046100E943E100EC0E037C1F40E94371081
:10189E000E944610EE87FF87AE85BF850E94A30E7D
:1018AE001E2F08600F77403011F0411708F001C06D
:1018BE00142F40E0E0E0EC8B30E06DC0E43611F028
:1018CE00E93611F4046002C0E537A1F4EAE0EC8BCE
:1018DE0001FF08C0E0E0FAEC6AE97BE30E944B10DE
:1018EE001AE022C0E0E1F7E260E070E00E944B10E7
:1018FE0015E01AC0E83511F4086003C0E83709F0A6
:10190E00EAC0E0E1EC8B01FF08C0E0E0F0E060E04F
:10191E0070E10E944B1018E007C0E0E0F0E160E0DB
:10192E0070E00E944B1014E0403011F00F7701C0B0
:10193E0041E001FF08C00E9437100E942B10149640
:10194E000E94B2130FC002FF07C00E9437100E9400
:10195E0046100E941B1306C00E9437100E944610AC
:10196E0066277727EA87FB876C877D8702FF12C081
:10197E00AD85AA2342F40E9439100E940D130E94D5
:10198E003210EDE2ED8BED89E03019F01F5F4F5F05
:10199E0001C00B7F342F00FD14C0151710F435173E
:1019AE0008F00FC007FF08C002FF04C00B7F2D898F
:1019BE00115001C020E301C020E20E9410105150CE
:1019CE00ECCF141790F4006102FF06C00E94501075
:1019DE0009F0515011504150E0E3EA930E94251056
:1019EE00503009F051504150ECCF312FEC89E0309E
:1019FE00B9F43030A1F003FF06C0EE85FF852591C6
:101A0E00EE87FF8705C0AE85BF852D91AE87BF8758
:101A1E000E941010503009F051503150EACF51C091
:101A2E000E9462100E944B132E2F2A3030F003FFBB
:101A3E0002C0295C01C0295A01C0205D04FD21C0ED
:101A4E00213360F4A889B9898A899B89A130E0E0A5
:101A5E00BE07E0E08E07E0E09E0709F40BC04317D7
:101A6E0040F4531710F000FF01C010C020E207FF32
:101A7E0008C020E3006102FF04C00E94501009F06C
:101A8E0051500E941010503009F0515031500E94A8
:101A9E0062100E948A130E943210EC89A889B989BB
:101AAE008A899B89FF27662777270E944B130E94FE
:101ABE004B10E889F9896A897B890E94071409F01D
:101ACE00AFCF00FF08C0503031F05150E0E2EA9342
:101ADE000E942510F8CF10E00CCEAE81BF810E947F
:101AEE00AE130E941814EF966F960895FF92F82E7B
:101AFE0026970E9413140E946B10309719F4EFEF83
:101B0E00FFEF23C0DE0116960E9405138D010E9481
:101B1E006B10EE83FF83E0E0E887E987DE011A961B
:101B2E000E9405130E94AE13FA93EA931A930A9336
:101B3E00E7E5FAE0FA93EA93DE011A96BDDD9F011E
:101B4E00AE81BF81E0E0EC93F9010E941A142A964F
:101B5E00FF900895AA93E881E295EF70AE2FAA0F39
:101B6E00AA0FEA0FEE0FA991AF70EA0F0895AA938C
:101B7E00A991EE27AA5012F0E05FFCCFA65FEA0F04
:101B8E0008950E94B20FE0E0EA83EFE3EB831A932D
:101B9E000A93EB85FC85EF3FAFEFFA0739F40E940D
:101BAE007210AEE7B1E00E948A0EA9C0EF3FAFE718
:101BBE00FA0739F40E947210AFE7B1E00E948A0E64
:101BCE009EC0AC85AA2362F4E985FA856B857C8577
:101BDE000E945C110E9477100E947C10EDE2EC9343
:101BEE00A885A73010F0E6E0E8871885E12F1150A0
:101BFE00E03039F00E9483100E94F70F0E94881087
:101C0E00F5CF0E948D100E9402120E94771010E0F4
:101C1E00E0E0F0E060E87FE30E9488100E948D1003
:101C2E000E94E51288F00E9483100E94E40F0E9429
:101C3E0088101F5F173238F00E947210A3E8B1E0CF
:101C4E000E948A0E5CC0EACF103029F40E947C10EC
:101C5E00E0E3EC9329C0E12F1150E03029F10E940E
:101C6E0083100E94F70F0E94F00FDF01CB010E943C
:101C7E00420A0E9488100E948D100E94A0120E949B
:101C8E008F110E2F0E947C100E940510F0E00E9412
:101C9E0083100E94FB0E0E9452120E9496100E9408
:101CAE002D0F0E947710D7CFE885E03021F10E94EA
:101CBE007C10EEE2EC93E885E150E887EF5FD9F017
:101CCE000E9496100E94E40F0E947710E985FA8513
:101CDE006B857C850E948F110E2F0E947C100E94B6
:101CEE000510F0E00E9496100E94FB0E0E942D0F30
:101CFE000E947710E0CFAE81BF81E0E0EC931981B6
:101D0E0008812D960895BA93AA93E991F991A99114
:101D1E00B991CD0105900D920020E1F7FC010895D7
:101D2E00BA93AA93A991B991EE27FF276D916623D5
:101D3E0011F03196FBCF0895BA93AA93AA27BB2729
:101D4E00E991F9910590002011F01196FBCFFD015C
:101D5E000895A0E0B0E00E94EA130895E7E2F3E0F0
:101D6E00FA93EA93E4E7F0E0FA93EA930895A4E68F
:101D7E00EA9FF001DF01E62DF0E0EA0FFB1F089568
:101D8E00E92DFF27662777270E94D3130895FF2793
:101D9E00662777270E94D3130895E0E0EA93A0E028
:101DAE000C949209A7E2B3E00C94D109F0E0E13073
:101DBE00A0E0FA070895E7E2F3E0FA93EA930895B4
:101DCE00EA93A1E00C949209FA93EA93A1E0B0E0B1
:101DDE000C947904E0913803E9CFAA81BB81E4E049
:101DEE00F0E00E947C1308950E941B130E94C811FC
:101DFE000895E0E0F0EA66EB73E408950E940212A3
:101E0E00EE87FF87688B798B0895EE85FF8568894D
:101E1E0079890895A0E0B0E088EF91E40895EE8707
:101E2E00FF87688B798B0895AE85BF8588899989E0
:101E3E00E0DF0E94A0120895A0E0B0E080E89FE3EA
:101E4E000895AE85BF858889998908950E94DD130E
:101E5E000E94FB110895AA85BB858C859D85E4E0C3
:101E6E00F0E060E070E00E948E1308950E94FB1176
:101E7E000E949111AF010895EA85FB856C857D85E1
:101E8E00E150F04060407040EA87FB876C877D87A9
:101E9E002CE030E008950E94D1098DCFE6ECF0E001
:101EAE00FA93EA93089584E00E947D0D2896E8E067
:101EBE0087CF0E94A010A0ED0C94D4100E94D410D5
:101ECE000C94AF100E94A010A1ED0E94D410A1E0BE
:101EDE000C94B910AE2F0E94B10DA881B981EC936C
:101EEE000895A1E00E94B910AE2F0C94B10DAA81F5
:101EFE00BB81EC93A0E00C94B9100E94D410A88181
:101F0E000E94BE0DAE2F08950E94D410A9810E948A
:101F1E00BE0DAE2F08950E94D410AA810E94BE0D50
:101F2E00AE2F0895E0E0FCE36CE176EC08950E949C
:101F3E007E09A3E0B0E00C94EC10A0E30E946A09C5
:101F4E0088EC90E00197F1F70895ED91FD913196AF
:101F5E00FE93EE930895BA93AA932497E0E0E88354
:101F6E00E9830895AC81BD818E819F81E0E0F0E030
:101F7E0060E271E40E945212EC83FD836E837F83D4
:101F8E000895EC81FD816E817F81AC85BD858E8546
:101F9E009F850E94E5120895AC85BD858E859F852F
:101FAE000895EDECFCEC6CEC7DE30E945212EC8794
:101FBE00FD876E877F873F5F0895E0E0F0E060E287
:101FCE0071E40E9452120895EC87FD876E877F8719
:101FDE000895A0E0B0E080E09FE30E940212089511
:101FEE00EDECFCEC6CEC7DE30E9452120895A8859A
:101FFE00B9851196A887B98711970895E02FE05DEE
:10200E00EC93E02F0895E885F9853196E887F987F6
:10201E0008952A93AF81B885E985FA8509950895C3
:10202E00FE01E65AFF4F0190F081E02D089534979E
:10203E00DE01A65ABF4FED93FC930895AF81B8858C
:10204E00E985FA8509950895DE01A65ABF4F0D90D0
:10205E00BC91A02D0895EA87FB876C877D87089534
:10206E00DFDFE5CFEA85FB856C857D850895EE87FC
:10207E00FF87AE85BF850E94970E1E2F0895E4DF61
:10208E0014960E94AE130895E88BF98B6A8B7B8BA6
:10209E0008950B7FED89EA93DE01A95ABF4F0D908B
:1020AE00BC91A02DFE01E75AFF4F0190F081E02D6B
:1020BE00099550300895E889F9896A897B89AA853E
:1020CE00BB858C859D850895DE011C960E940513A7
:1020DE000E94AE130895EE81FF81FA93EA9308955C
:1020EE00E987FA876B877C870895AE81BF81119649
:1020FE00AE83BF8311970895AA81BB818C819D8188
:10210E000895EA83FB836C837D830895EA81FB81C6
:10211E006C817D81A985BA858B859C850895A9855D
:10212E00BA858B859C850895A898A998A09AA198A0
:10213E0015C0A198A098EE270000999B0895989B32
:10214E00089504D0A19A02D0A09AE1E06DE007C0F4
:10215E00A19AA09A03D0A098F9DFA1986BE16A9595
:10216E00F1F7089578E0A098F1DF989BFECFEEDFAF
:10217E00889499990894A09AF1DFEE1F7A9599F7B1
:10218E007A2F772311F4A19801C0A19ADFDFA098CE
:10219E00E5DFA09ADBDFA198D9CF78E0AA0F10F483
:1021AE00A19801C0A19ADADFA098D0DF989BFECF4C
:1021BE00CDDFA09A7A9591F7A198C8DFA098CEDFCF
:1021CE00E1E09999EE27A09AC1CF109639F0A89523
:1021DE0080ED97E00197F1F71197C9F70895EE2773
:1021EE00C098B89A80EC93E00197F1F7B89885E221
:1021FE008A95F1F7B09B08958BEC8A95F1F7B09B19
:10220E00E1E08CE093E00197F1F70895B89A85E04C
:10221E008A95F1F7B8988DE18A95F1F78894B0997F
:10222E000894E79585ED8A95F1F70895E894B89AA4
:10223E0085E08A95F1F770FDB89883E28A95F1F7FB
:10224E00B09903C070FF03C0089570FF089588EC25
:10225E008A95F1F7B8988DE08A95F1F7689408950C
:10226E0068E0D4DF6A95E9F708957A2F68E0EE27E3
:10227E00DDDF26F477956A95D9F7E3950895EE2775
:10228E00AA2389F08A2F68E1A881B98198E0FD918F
:10229E007F2F7E27779508F4E627E795F6959A9592
:1022AE00B9F78A9599F72296089530976040704055
:1022BE0009F070580895552342F4503811F4E0FF98
:1022CE0004C03196691F791F6BF050E8572711F43F
:1022DE005F93CFC05F3F31F0660F000C5795679547
:1022EE00752F08955F9300200AF0CFC0C8C050E844
:1022FE00192E1522880F991F9527550F879550E88F
:10230E00072E0522660F771F7527550F67950895BF
:10231E00689401C0E8945F93F2DF703818F07F3F45
:10232E0008F4A7C056E1571BAAF4519558300EF485
:10233E00593030F0EFEFFFEF6FEF7FE777F91AC00C
:10234E0077275523B9F0EE0FFF1F661F771F5A959B
:10235E00D1F710C07727583028F0EF2FF62F672FC0
:10236E005850F9CF552331F076956795F795E79547
:10237E005A95D1F700200AF449D15F9108956894D7
:10238E0001C0E894309760407040B1F0002426F010
:10239E00772312F400943AD1172E7EE1112032F0F9
:1023AE007A95EE0FFF1F661F111CF9CFEF2FF62F38
:1023BE00612D5F938ADF5F9108954F93AF01FD0109
:1023CE00DA01AB01BC01CA01402D012C142E4F9134
:1023DE000895EA0FFB1F681F0895E095F09560952C
:1023EE00EF5FFF4F6F4F08955F9381DF903871F16C
:1023FE0050E8152604C05F937ADF903839F17038B3
:10240E0021F1572F591B2BF112F4D7DFFACF583188
:10241E0018F0AA27BB278827583028F0AB2FB82FE3
:10242E0088275850F9CF552329F08695B795A7954B
:10243E005A95D9F7502D512572F0CBDF38F46795A8
:10244E00F795E795739513F420C0B7DF3EDF5F91E4
:10245E000895D8F7FBCFEA1BFB0B680B51F010F475
:10246E000094BBDF662392F3EE0FFF1F661F7A9573
:10247E00CBF7EE27FF27662777275F910895EFEFBB
:10248E00FFEF6FE77FEF5F910895EFEFFFEF6FE7DD
:10249E007FE75F9108955F932ADF703851F390388C
:1024AE0041F301240894791F23F41CF300203AF31E
:1024BE00ECCF0F921F932F933F934F931127222709
:1024CE009927689FA0018F9F302D410D591F6B9F3B
:1024DE00300D411D591F8E9F27D0BF9F25D06A9F5B
:1024EE0023D0BE9F1DD0AF9F1BD0AE9F110D291FB5
:1024FE00391F491F591FE32FF42F652F522F4F916C
:10250E003F912F911F910F9066232AF0550FEE1FCA
:10251E00FF1F661F02C073954BF2CDDE5F910895CB
:10252E00100D211D391F02C0200D311D491F591FCD
:10253E0008955F93DCDE703821F411200AF49FCFEA
:10254E00A4CF903809F495CF01240894970B1BF46F
:10255E00D4F30020F3CF792F1F932F933F934F93F4
:10256E0011241127222733274427552790E2AE172F
:10257E00BF078607410730F0AE1BBF0B860B410B22
:10258E00089401C08894551F221F331F111CAA1FC7
:10259E00BB1F881F441F9A9551F7F901612D4F916A
:1025AE003F912F911F91662332F0550FEE1FFF1FA3
:1025BE00661F7A9543F27FDE5F91089599239AF014
:1025CE00772342F0971748F029F4AE17BF07860716
:1025DE0020F031F098948894089598940894089572
:1025EE001894889408957723C2F7971798F3A9F74C
:1025FE00EA17FB07680788F399F3ECCF0024AF0DB9
:10260E00B01D0895F195E195F0400895F09560950F
:10261E007095E195FF4F6F4F7F4F0895FE2FFF0F7F
:10262E00FF0B6F2F7F2F08956F2F660F660B762F80
:10263E000895EE23E1E009F0EE270895002498E0D6
:10264E00AA0F001C0E1A10F40E0E01C0A1609A956E
:10265E00B9F7EA2FA02D08956ED0F0DF0EF4E195B4
:10266E0008950024112490E1AA0FBB1F001C111C19
:10267E000E1A1F0A18F40E0E1F1E01C0A1609A95A5
:10268E0099F7FD01D00108953F934F935F93002476
:10269E0011244427552730E2AA0FBB1F881F991F0C
:1026AE00001C111C441F551F0E1A1F0A460B570BF8
:1026BE0028F40E0E1F1E461F571F01C0A1603A952B
:1026CE0059F7FD01BC01D001CA015F914F913F91B5
:1026DE000895E894A7FF02C0A1956894E7FDE195DF
:1026EE00ADDFEA2F0EF4E1950895E894B7FF04C02C
:1026FE00A095B09511966894F7FD84DFB2DFFD01C9
:10270E000EF480DF0895C0DFFD01BC010895E8944A
:10271E0097FF09C0A095B09580959095AF5FBF4F7C
:10272E008F4F9F4F689477FD71DFAEDFFD01BC01C7
:10273E000EF46CDF0895E894E7FF02C0E19568940B
:10274E00A7FF04C0A19500F8039400FA0895ED9137
:10275E00FC9111970895ED91FD916D917C911397D8
:10276E000895ED93FD936D937C9308950590F491E8
:10277E00E02D0895A591B4910895E881F9816A81BB
:10278E007B810895A881B9818A819B810895E88310
:10279E00F9836A837B8308957A936A93FA93EA9313
:1027AE0008959A938A93BA93AA930895182E862F12
:1027BE00612D192E972F712D1B2EBF2FF12D1A2E35
:1027CE00AE2FE12D0895E199FECFFF93FFB7F89458
:1027DE00AEBBBFBBE09AEDB3FFBFFF910895E19B87
:1027EE0002C0A895FCCF9FB7F894AEBBBFBBE09AD2
:1027FE008DB3E81719F0EDBBE29AE19A9FBF0895E9
:10280E00309760407040089500240A160B060806A3
:10281E00090608955A934A933A932A931A930A9360
:10282E0008955D814C813B812A811981088108952B
:00000001FF
